{
  "contractName": "test",
  "abi": [
    {
      "constant": true,
      "inputs": [
        {
          "name": "",
          "type": "address"
        }
      ],
      "name": "tokenbalance",
      "outputs": [
        {
          "name": "",
          "type": "uint256"
        }
      ],
      "payable": false,
      "stateMutability": "view",
      "type": "function"
    },
    {
      "constant": false,
      "inputs": [],
      "name": "test1",
      "outputs": [],
      "payable": true,
      "stateMutability": "payable",
      "type": "function"
    },
    {
      "constant": false,
      "inputs": [
        {
          "name": "value",
          "type": "uint256"
        }
      ],
      "name": "test3",
      "outputs": [],
      "payable": false,
      "stateMutability": "nonpayable",
      "type": "function"
    }
  ],
  "bytecode": "0x608060405234801561001057600080fd5b50610253806100206000396000f300608060405260043610610057576000357c0100000000000000000000000000000000000000000000000000000000900463ffffffff1680636b59084d1461005c578063e90c0f2c14610066578063f7adc48f146100bd575b600080fd5b6100646100ea565b005b34801561007257600080fd5b506100a7600480360381019080803573ffffffffffffffffffffffffffffffffffffffff169060200190929190505050610142565b6040518082815260200191505060405180910390f35b3480156100c957600080fd5b506100e86004803603810190808035906020019092919050505061015a565b005b600034111561014057346000803373ffffffffffffffffffffffffffffffffffffffff1673ffffffffffffffffffffffffffffffffffffffff168152602001908152602001600020600082825401925050819055505b565b60006020528060005260406000206000915090505481565b806000803373ffffffffffffffffffffffffffffffffffffffff1673ffffffffffffffffffffffffffffffffffffffff168152602001908152602001600020541115610224573373ffffffffffffffffffffffffffffffffffffffff168160405160006040518083038185875af19250505015156101d757600080fd5b806000803373ffffffffffffffffffffffffffffffffffffffff1673ffffffffffffffffffffffffffffffffffffffff168152602001908152602001600020600082825403925050819055505b505600a165627a7a7230582024ce60ffbcc405052ca39dc234174a6cd13a8db7f0f629f37bbcf81c501926700029",
  "source": "pragma solidity ^0.4.23;\ncontract test{\n    mapping (address => uint256) public tokenbalance;\n\n    function test1() public payable {\n        if(msg.value > 0){\n            tokenbalance[msg.sender] += msg.value;\n        }\n    }\n\n\n    function test3(uint256 value) public{\n        if (tokenbalance[msg.sender] > value) {\n            require(msg.sender.call.value(value)());\n            tokenbalance[msg.sender] -= value;\n        }\n    }\n}",
  "sourcePath": "/home/xcrab/MyWorkspace/DEMO_Guard/Re-entry/contracts/code.sol",
  "compiler": {
    "name": "solc",
    "version": "0.4.24+commit.e67f0147.Emscripten.clang"
  },
  "schemaVersion": "3.0.2",
  "updatedAt": "2019-05-05T03:36:37.753Z",
  "devdoc": {
    "methods": {}
  },
  "userdoc": {
    "methods": {}
  }
}